{
  "contractName": "Factory",
  "abi": [
    {
      "inputs": [],
      "payable": false,
      "stateMutability": "nonpayable",
      "type": "constructor"
    },
    {
      "constant": false,
      "inputs": [
        {
          "internalType": "string",
          "name": "_address",
          "type": "string"
        },
        {
          "internalType": "string",
          "name": "_picture",
          "type": "string"
        },
        {
          "internalType": "string",
          "name": "_city",
          "type": "string"
        },
        {
          "internalType": "uint256",
          "name": "_realtorFee",
          "type": "uint256"
        },
        {
          "internalType": "uint256",
          "name": "_price",
          "type": "uint256"
        }
      ],
      "name": "create",
      "outputs": [
        {
          "internalType": "contract HomeTransaction",
          "name": "homeTransaction",
          "type": "address"
        }
      ],
      "payable": false,
      "stateMutability": "nonpayable",
      "type": "function"
    },
    {
      "constant": true,
      "inputs": [
        {
          "internalType": "uint256",
          "name": "index",
          "type": "uint256"
        }
      ],
      "name": "getInstance",
      "outputs": [
        {
          "internalType": "contract HomeTransaction",
          "name": "instance",
          "type": "address"
        }
      ],
      "payable": false,
      "stateMutability": "view",
      "type": "function"
    },
    {
      "constant": true,
      "inputs": [],
      "name": "getInstances",
      "outputs": [
        {
          "internalType": "contract HomeTransaction[]",
          "name": "instances",
          "type": "address[]"
        }
      ],
      "payable": false,
      "stateMutability": "view",
      "type": "function"
    },
    {
      "constant": true,
      "inputs": [],
      "name": "getInstanceCount",
      "outputs": [
        {
          "internalType": "uint256",
          "name": "count",
          "type": "uint256"
        }
      ],
      "payable": false,
      "stateMutability": "view",
      "type": "function"
    }
  ],
  "bytecode": "0x608060405234801561001057600080fd5b50336000806101000a81548173ffffffffffffffffffffffffffffffffffffffff021916908373ffffffffffffffffffffffffffffffffffffffff16021790555061183a806100606000396000f3fe608060405234801561001057600080fd5b506004361061004c5760003560e01c806344c29e3214610051578063ae34325c1461028e578063d35fdd79146102ac578063ebd348de1461030b575b600080fd5b61024c600480360360a081101561006757600080fd5b810190808035906020019064010000000081111561008457600080fd5b82018360208201111561009657600080fd5b803590602001918460018302840111640100000000831117156100b857600080fd5b91908080601f016020809104026020016040519081016040528093929190818152602001838380828437600081840152601f19601f8201169050808301925050505050505091929192908035906020019064010000000081111561011b57600080fd5b82018360208201111561012d57600080fd5b8035906020019184600183028401116401000000008311171561014f57600080fd5b91908080601f016020809104026020016040519081016040528093929190818152602001838380828437600081840152601f19601f820116905080830192505050505050509192919290803590602001906401000000008111156101b257600080fd5b8201836020820111156101c457600080fd5b803590602001918460018302840111640100000000831117156101e657600080fd5b91908080601f016020809104026020016040519081016040528093929190818152602001838380828437600081840152601f19601f8201169050808301925050505050505091929192908035906020019092919080359060200190929190505050610379565b604051808273ffffffffffffffffffffffffffffffffffffffff1673ffffffffffffffffffffffffffffffffffffffff16815260200191505060405180910390f35b6102966105f8565b6040518082815260200191505060405180910390f35b6102b4610605565b6040518080602001828103825283818151815260200191508051906020019060200280838360005b838110156102f75780820151818401526020810190506102dc565b505050509050019250505060405180910390f35b6103376004803603602081101561032157600080fd5b8101908080359060200190929190505050610693565b604051808273ffffffffffffffffffffffffffffffffffffffff1673ffffffffffffffffffffffffffffffffffffffff16815260200191505060405180910390f35b60008585858585336000809054906101000a900473ffffffffffffffffffffffffffffffffffffffff166040516103af9061074e565b808060200180602001806020018881526020018781526020018673ffffffffffffffffffffffffffffffffffffffff1673ffffffffffffffffffffffffffffffffffffffff1681526020018573ffffffffffffffffffffffffffffffffffffffff1673ffffffffffffffffffffffffffffffffffffffff16815260200184810384528b818151815260200191508051906020019080838360005b83811015610464578082015181840152602081019050610449565b50505050905090810190601f1680156104915780820380516001836020036101000a031916815260200191505b5084810383528a818151815260200191508051906020019080838360005b838110156104ca5780820151818401526020810190506104af565b50505050905090810190601f1680156104f75780820380516001836020036101000a031916815260200191505b50848103825289818151815260200191508051906020019080838360005b83811015610530578082015181840152602081019050610515565b50505050905090810190601f16801561055d5780820380516001836020036101000a031916815260200191505b509a5050505050505050505050604051809103906000f080158015610586573d6000803e3d6000fd5b50905060018190806001815401808255809150509060018203906000526020600020016000909192909190916101000a81548173ffffffffffffffffffffffffffffffffffffffff021916908373ffffffffffffffffffffffffffffffffffffffff1602179055505095945050505050565b6000600180549050905090565b6060600180548060200260200160405190810160405280929190818152602001828054801561068957602002820191906000526020600020905b8160009054906101000a900473ffffffffffffffffffffffffffffffffffffffff1673ffffffffffffffffffffffffffffffffffffffff168152602001906001019080831161063f575b5050505050905090565b6000600180549050821061070f576040517f08c379a00000000000000000000000000000000000000000000000000000000081526004018080602001828103825260128152602001807f696e646578206f7574206f662072616e6765000000000000000000000000000081525060200191505060405180910390fd5b6001828154811061071c57fe5b9060005260206000200160009054906101000a900473ffffffffffffffffffffffffffffffffffffffff169050919050565b6110aa8061075c8339019056fe608060405260016000806101000a81548160ff021916908360018111156200002357fe5b02179055503480156200003557600080fd5b50604051620010aa380380620010aa833981810160405260e08110156200005b57600080fd5b81019080805160405193929190846401000000008211156200007c57600080fd5b838201915060208201858111156200009357600080fd5b8251866001820283011164010000000082111715620000b157600080fd5b8083526020830192505050908051906020019080838360005b83811015620000e7578082015181840152602081019050620000ca565b50505050905090810190601f168015620001155780820380516001836020036101000a031916815260200191505b50604052602001805160405193929190846401000000008211156200013957600080fd5b838201915060208201858111156200015057600080fd5b82518660018202830111640100000000821117156200016e57600080fd5b8083526020830192505050908051906020019080838360005b83811015620001a457808201518184015260208101905062000187565b50505050905090810190601f168015620001d25780820380516001836020036101000a031916815260200191505b5060405260200180516040519392919084640100000000821115620001f657600080fd5b838201915060208201858111156200020d57600080fd5b82518660018202830111640100000000821117156200022b57600080fd5b8083526020830192505050908051906020019080838360005b838110156200026157808201518184015260208101905062000244565b50505050905090810190601f1680156200028f5780820380516001836020036101000a031916815260200191505b506040526020018051906020019092919080519060200190929190805190602001909291908051906020019092919050505081600060016101000a81548173ffffffffffffffffffffffffffffffffffffffff021916908373ffffffffffffffffffffffffffffffffffffffff16021790555086600390805190602001906200031a929190620003b1565b50856004908051906020019062000333929190620003b1565b5084600590805190602001906200034c929190620003b1565b50826007819055508360068190555080600260006101000a81548173ffffffffffffffffffffffffffffffffffffffff021916908373ffffffffffffffffffffffffffffffffffffffff16021790555060006008819055505050505050505062000460565b828054600181600116156101000203166002900490600052602060002090601f016020900481019282601f10620003f457805160ff191683800117855562000425565b8280016001018555821562000425579182015b828111156200042457825182559160200191906001019062000407565b5b50905062000434919062000438565b5090565b6200045d91905b80821115620004595760008160009055506001016200043f565b5090565b90565b610c3a80620004706000396000f3fe6080604052600436106100dd5760003560e01c8063968e28e81161007f578063d0e30db011610059578063d0e30db014610345578063f32a7e5114610370578063f629ad301461037a578063fd0160fe1461040a576100dd565b8063968e28e8146102e557806398f427cf14610310578063a035b1fe1461031a576100dd565b80637150d8ae116100bb5780637150d8ae1461016e5780637b1e9cf8146101c557806385209ee0146102555780638da5cb5b1461028e576100dd565b806308551a53146100e25780632323f8f51461013957806367a6fcfb14610143575b600080fd5b3480156100ee57600080fd5b506100f761049a565b604051808273ffffffffffffffffffffffffffffffffffffffff1673ffffffffffffffffffffffffffffffffffffffff16815260200191505060405180910390f35b6101416104c0565b005b34801561014f57600080fd5b506101586106b2565b6040518082815260200191505060405180910390f35b34801561017a57600080fd5b506101836106b8565b604051808273ffffffffffffffffffffffffffffffffffffffff1673ffffffffffffffffffffffffffffffffffffffff16815260200191505060405180910390f35b3480156101d157600080fd5b506101da6106de565b6040518080602001828103825283818151815260200191508051906020019080838360005b8381101561021a5780820151818401526020810190506101ff565b50505050905090810190601f1680156102475780820380516001836020036101000a031916815260200191505b509250505060405180910390f35b34801561026157600080fd5b5061026a61077c565b6040518082600181111561027a57fe5b60ff16815260200191505060405180910390f35b34801561029a57600080fd5b506102a361078e565b604051808273ffffffffffffffffffffffffffffffffffffffff1673ffffffffffffffffffffffffffffffffffffffff16815260200191505060405180910390f35b3480156102f157600080fd5b506102fa6107b4565b6040518082815260200191505060405180910390f35b6103186107ba565b005b34801561032657600080fd5b5061032f61093b565b6040518082815260200191505060405180910390f35b34801561035157600080fd5b5061035a610941565b6040518082815260200191505060405180910390f35b610378610947565b005b34801561038657600080fd5b5061038f610ac9565b6040518080602001828103825283818151815260200191508051906020019080838360005b838110156103cf5780820151818401526020810190506103b4565b50505050905090810190601f1680156103fc5780820380516001836020036101000a031916815260200191505b509250505060405180910390f35b34801561041657600080fd5b5061041f610b67565b6040518080602001828103825283818151815260200191508051906020019080838360005b8381101561045f578082015181840152602081019050610444565b50505050905090810190601f16801561048c5780820380516001836020036101000a031916815260200191505b509250505060405180910390f35b600060019054906101000a900473ffffffffffffffffffffffffffffffffffffffff1681565b600060018111156104cd57fe5b6000809054906101000a900460ff1660018111156104e757fe5b1461055a576040517f08c379a00000000000000000000000000000000000000000000000000000000081526004018080602001828103825260148152602001807f57726f6e6720636f6e747261637420737461746500000000000000000000000081525060200191505060405180910390fd5b60075434146105d1576040517f08c379a00000000000000000000000000000000000000000000000000000000081526004018080602001828103825260138152602001807f506179207468652065786163742070726963650000000000000000000000000081525060200191505060405180910390fd5b600060019054906101000a900473ffffffffffffffffffffffffffffffffffffffff1673ffffffffffffffffffffffffffffffffffffffff166108fc349081150290604051600060405180830381858888f19350505050158015610639573d6000803e3d6000fd5b5060016000806101000a81548160ff0219169083600181111561065857fe5b021790555033600060016101000a81548173ffffffffffffffffffffffffffffffffffffffff021916908373ffffffffffffffffffffffffffffffffffffffff160217905550600860008154809291906001019190505550565b60085481565b600160009054906101000a900473ffffffffffffffffffffffffffffffffffffffff1681565b60048054600181600116156101000203166002900480601f0160208091040260200160405190810160405280929190818152602001828054600181600116156101000203166002900480156107745780601f1061074957610100808354040283529160200191610774565b820191906000526020600020905b81548152906001019060200180831161075757829003601f168201915b505050505081565b6000809054906101000a900460ff1681565b600260009054906101000a900473ffffffffffffffffffffffffffffffffffffffff1681565b60065481565b3373ffffffffffffffffffffffffffffffffffffffff16600060019054906101000a900473ffffffffffffffffffffffffffffffffffffffff1673ffffffffffffffffffffffffffffffffffffffff161461087d576040517f08c379a000000000000000000000000000000000000000000000000000000000815260040180806020018281038252601d8152602001807f4f6e6c792073656c6c65722063616e207369676e20636f6e747261637400000081525060200191505060405180910390fd5b60018081111561088957fe5b6000809054906101000a900460ff1660018111156108a357fe5b14610916576040517f08c379a00000000000000000000000000000000000000000000000000000000081526004018080602001828103825260148152602001807f57726f6e6720636f6e747261637420737461746500000000000000000000000081525060200191505060405180910390fd5b60008060006101000a81548160ff0219169083600181111561093457fe5b0217905550565b60075481565b60095481565b3373ffffffffffffffffffffffffffffffffffffffff16600060019054906101000a900473ffffffffffffffffffffffffffffffffffffffff1673ffffffffffffffffffffffffffffffffffffffff1614610a0a576040517f08c379a000000000000000000000000000000000000000000000000000000000815260040180806020018281038252601d8152602001807f4f6e6c792073656c6c65722063616e207369676e20636f6e747261637400000081525060200191505060405180910390fd5b60006001811115610a1757fe5b6000809054906101000a900460ff166001811115610a3157fe5b14610aa4576040517f08c379a00000000000000000000000000000000000000000000000000000000081526004018080602001828103825260148152602001807f57726f6e6720636f6e747261637420737461746500000000000000000000000081525060200191505060405180910390fd5b60016000806101000a81548160ff02191690836001811115610ac257fe5b0217905550565b60038054600181600116156101000203166002900480601f016020809104026020016040519081016040528092919081815260200182805460018160011615610100020316600290048015610b5f5780601f10610b3457610100808354040283529160200191610b5f565b820191906000526020600020905b815481529060010190602001808311610b4257829003601f168201915b505050505081565b60058054600181600116156101000203166002900480601f016020809104026020016040519081016040528092919081815260200182805460018160011615610100020316600290048015610bfd5780601f10610bd257610100808354040283529160200191610bfd565b820191906000526020600020905b815481529060010190602001808311610be057829003601f168201915b50505050508156fea265627a7a723158204f6909d7f28b36c85e8ffc673adc88d53210472983947ee25c8eed100cd470af64736f6c63430005100032a265627a7a7231582009a94153aef98410fbb3ebdfb870cfbd1aa328d7b33c6f38424a1cf9e067609564736f6c63430005100032",
  "source": "// SPDX-License-Identifier: MIT\npragma solidity >=0.4.22 <0.9.0;\n\nimport \"./HomeTransaction.sol\";\n\ncontract Factory {\n  address payable owner;\n  HomeTransaction[] contracts;\n\n  constructor() public {\n        //le mec qui deploie est proprietaire du smart contract\n        owner = msg.sender;\n  }\n\n  function create(\n        string memory _address,\n        string memory _picture,\n        string memory _city,\n        uint _realtorFee,\n        uint _price\n        ) public returns(HomeTransaction homeTransaction)  {\n          \n    homeTransaction = new HomeTransaction(\n      _address,\n      _picture,\n      _city,\n      _realtorFee,\n      _price,\n      msg.sender,\n      owner\n      );\n    contracts.push(homeTransaction);\n  }\n\n  function getInstance(uint index) public view returns (HomeTransaction instance) {\n    require(index < contracts.length, \"index out of range\");\n\n    instance = contracts[index];\n  }\n\n  function getInstances() public view returns (HomeTransaction[] memory instances) {\n    instances = contracts;\n  }\n\n  function getInstanceCount() public view returns (uint count) {\n    count = contracts.length;\n  }\n}\n",
  "sourcePath": "/Users/yoann/5BLOC/finguers/contracts/Factory.sol",
  "compiler": {
    "name": "solc",
    "version": "0.5.16+commit.9c3226ce.Emscripten.clang"
  },
  "schemaVersion": "3.3.4",
  "updatedAt": "2021-03-01T22:05:32.327Z",
  "networkType": "ethereum",
  "devdoc": {
    "methods": {}
  },
  "userdoc": {
    "methods": {}
  }
}