{
  "contractName": "Factory",
  "abi": [
    {
      "constant": false,
      "inputs": [
        {
          "internalType": "string",
          "name": "_address",
          "type": "string"
        },
        {
          "internalType": "string",
          "name": "_zip",
          "type": "string"
        },
        {
          "internalType": "string",
          "name": "_city",
          "type": "string"
        },
        {
          "internalType": "uint256",
          "name": "_realtorFee",
          "type": "uint256"
        },
        {
          "internalType": "uint256",
          "name": "_price",
          "type": "uint256"
        },
        {
          "internalType": "address payable",
          "name": "_seller",
          "type": "address"
        },
        {
          "internalType": "address payable",
          "name": "_buyer",
          "type": "address"
        }
      ],
      "name": "create",
      "outputs": [
        {
          "internalType": "contract HomeTransaction",
          "name": "homeTransaction",
          "type": "address"
        }
      ],
      "payable": false,
      "stateMutability": "nonpayable",
      "type": "function"
    },
    {
      "constant": true,
      "inputs": [
        {
          "internalType": "uint256",
          "name": "index",
          "type": "uint256"
        }
      ],
      "name": "getInstance",
      "outputs": [
        {
          "internalType": "contract HomeTransaction",
          "name": "instance",
          "type": "address"
        }
      ],
      "payable": false,
      "stateMutability": "view",
      "type": "function"
    },
    {
      "constant": true,
      "inputs": [],
      "name": "getInstances",
      "outputs": [
        {
          "internalType": "contract HomeTransaction[]",
          "name": "instances",
          "type": "address[]"
        }
      ],
      "payable": false,
      "stateMutability": "view",
      "type": "function"
    },
    {
      "constant": true,
      "inputs": [],
      "name": "getInstanceCount",
      "outputs": [
        {
          "internalType": "uint256",
          "name": "count",
          "type": "uint256"
        }
      ],
      "payable": false,
      "stateMutability": "view",
      "type": "function"
    }
  ],
  "bytecode": "0x608060405234801561001057600080fd5b506120a7806100206000396000f3fe608060405234801561001057600080fd5b506004361061004c5760003560e01c8063ae34325c14610051578063bfa095d51461006f578063d35fdd79146102ec578063ebd348de1461034b575b600080fd5b6100596103b9565b6040518082815260200191505060405180910390f35b6102aa600480360360e081101561008557600080fd5b81019080803590602001906401000000008111156100a257600080fd5b8201836020820111156100b457600080fd5b803590602001918460018302840111640100000000831117156100d657600080fd5b91908080601f016020809104026020016040519081016040528093929190818152602001838380828437600081840152601f19601f8201169050808301925050505050505091929192908035906020019064010000000081111561013957600080fd5b82018360208201111561014b57600080fd5b8035906020019184600183028401116401000000008311171561016d57600080fd5b91908080601f016020809104026020016040519081016040528093929190818152602001838380828437600081840152601f19601f820116905080830192505050505050509192919290803590602001906401000000008111156101d057600080fd5b8201836020820111156101e257600080fd5b8035906020019184600183028401116401000000008311171561020457600080fd5b91908080601f016020809104026020016040519081016040528093929190818152602001838380828437600081840152601f19601f8201169050808301925050505050505091929192908035906020019092919080359060200190929190803573ffffffffffffffffffffffffffffffffffffffff169060200190929190803573ffffffffffffffffffffffffffffffffffffffff1690602001909291905050506103c5565b604051808273ffffffffffffffffffffffffffffffffffffffff1673ffffffffffffffffffffffffffffffffffffffff16815260200191505060405180910390f35b6102f4610659565b6040518080602001828103825283818151815260200191508051906020019060200280838360005b8381101561033757808201518184015260208101905061031c565b505050509050019250505060405180910390f35b6103776004803603602081101561036157600080fd5b81019080803590602001909291905050506106e7565b604051808273ffffffffffffffffffffffffffffffffffffffff1673ffffffffffffffffffffffffffffffffffffffff16815260200191505060405180910390f35b60008080549050905090565b600087878787873388886040516103db906107a1565b808060200180602001806020018981526020018881526020018773ffffffffffffffffffffffffffffffffffffffff1673ffffffffffffffffffffffffffffffffffffffff1681526020018673ffffffffffffffffffffffffffffffffffffffff1673ffffffffffffffffffffffffffffffffffffffff1681526020018573ffffffffffffffffffffffffffffffffffffffff1673ffffffffffffffffffffffffffffffffffffffff16815260200184810384528c818151815260200191508051906020019080838360005b838110156104c25780820151818401526020810190506104a7565b50505050905090810190601f1680156104ef5780820380516001836020036101000a031916815260200191505b5084810383528b818151815260200191508051906020019080838360005b8381101561052857808201518184015260208101905061050d565b50505050905090810190601f1680156105555780820380516001836020036101000a031916815260200191505b5084810382528a818151815260200191508051906020019080838360005b8381101561058e578082015181840152602081019050610573565b50505050905090810190601f1680156105bb5780820380516001836020036101000a031916815260200191505b509b505050505050505050505050604051809103906000f0801580156105e5573d6000803e3d6000fd5b50905060008190806001815401808255809150509060018203906000526020600020016000909192909190916101000a81548173ffffffffffffffffffffffffffffffffffffffff021916908373ffffffffffffffffffffffffffffffffffffffff16021790555050979650505050505050565b606060008054806020026020016040519081016040528092919081815260200182805480156106dd57602002820191906000526020600020905b8160009054906101000a900473ffffffffffffffffffffffffffffffffffffffff1673ffffffffffffffffffffffffffffffffffffffff1681526020019060010190808311610693575b5050505050905090565b600080805490508210610762576040517f08c379a00000000000000000000000000000000000000000000000000000000081526004018080602001828103825260128152602001807f696e646578206f7574206f662072616e6765000000000000000000000000000081525060200191505060405180910390fd5b6000828154811061076f57fe5b9060005260206000200160009054906101000a900473ffffffffffffffffffffffffffffffffffffffff169050919050565b6118c380620007b08339019056fe608060405260008060006101000a81548160ff021916908360058111156200002357fe5b02179055506000600a60006101000a81548160ff021916908360028111156200004857fe5b02179055503480156200005a57600080fd5b50604051620018c3380380620018c383398181016040526101008110156200008157600080fd5b8101908080516040519392919084640100000000821115620000a257600080fd5b83820191506020820185811115620000b957600080fd5b8251866001820283011164010000000082111715620000d757600080fd5b8083526020830192505050908051906020019080838360005b838110156200010d578082015181840152602081019050620000f0565b50505050905090810190601f1680156200013b5780820380516001836020036101000a031916815260200191505b50604052602001805160405193929190846401000000008211156200015f57600080fd5b838201915060208201858111156200017657600080fd5b82518660018202830111640100000000821117156200019457600080fd5b8083526020830192505050908051906020019080838360005b83811015620001ca578082015181840152602081019050620001ad565b50505050905090810190601f168015620001f85780820380516001836020036101000a031916815260200191505b50604052602001805160405193929190846401000000008211156200021c57600080fd5b838201915060208201858111156200023357600080fd5b82518660018202830111640100000000821117156200025157600080fd5b8083526020830192505050908051906020019080838360005b83811015620002875780820151818401526020810190506200026a565b50505050905090810190601f168015620002b55780820380516001836020036101000a031916815260200191505b506040526020018051906020019092919080519060200190929190805190602001909291908051906020019092919080519060200190929190505050848410156200034c576040517f08c379a00000000000000000000000000000000000000000000000000000000081526004018080602001828103825260288152602001806200189b6028913960400191505060405180910390fd5b82600060016101000a81548173ffffffffffffffffffffffffffffffffffffffff021916908373ffffffffffffffffffffffffffffffffffffffff16021790555081600160006101000a81548173ffffffffffffffffffffffffffffffffffffffff021916908373ffffffffffffffffffffffffffffffffffffffff16021790555080600260006101000a81548173ffffffffffffffffffffffffffffffffffffffff021916908373ffffffffffffffffffffffffffffffffffffffff16021790555087600390805190602001906200042792919062000476565b5086600490805190602001906200044092919062000476565b5085600590805190602001906200045992919062000476565b508360078190555084600681905550505050505050505062000525565b828054600181600116156101000203166002900490600052602060002090601f016020900481019282601f10620004b957805160ff1916838001178555620004ea565b82800160010185558215620004ea579182015b82811115620004e9578251825591602001919060010190620004cc565b5b509050620004f99190620004fd565b5090565b6200052291905b808211156200051e57600081600090555060010162000504565b5090565b90565b61136680620005356000396000f3fe6080604052600436106100f25760003560e01c806385209ee01161008a578063ba0892d911610059578063ba0892d9146103a1578063d0e30db0146103b8578063f629ad30146103e3578063fd0160fe14610473576100f2565b806385209ee0146102e7578063968e28e814610320578063a035b1fe1461034b578063a0cb23cd14610376576100f2565b80633e23b9f9116100c65780633e23b9f9146101f25780634ed523e9146102495780636b0ccb76146102535780637150d8ae14610290576100f2565b8062919055146100f757806308551a531461018757806318be633f146101de5780632323f8f5146101e8575b600080fd5b34801561010357600080fd5b5061010c610503565b6040518080602001828103825283818151815260200191508051906020019080838360005b8381101561014c578082015181840152602081019050610131565b50505050905090810190601f1680156101795780820380516001836020036101000a031916815260200191505b509250505060405180910390f35b34801561019357600080fd5b5061019c6105a1565b604051808273ffffffffffffffffffffffffffffffffffffffff1673ffffffffffffffffffffffffffffffffffffffff16815260200191505060405180910390f35b6101e66105c7565b005b6101f0610749565b005b3480156101fe57600080fd5b506102076109e6565b604051808273ffffffffffffffffffffffffffffffffffffffff1673ffffffffffffffffffffffffffffffffffffffff16815260200191505060405180910390f35b610251610a0c565b005b34801561025f57600080fd5b5061028e6004803603602081101561027657600080fd5b81019080803515159060200190929190505050610c16565b005b34801561029c57600080fd5b506102a5610e5e565b604051808273ffffffffffffffffffffffffffffffffffffffff1673ffffffffffffffffffffffffffffffffffffffff16815260200191505060405180910390f35b3480156102f357600080fd5b506102fc610e84565b6040518082600581111561030c57fe5b60ff16815260200191505060405180910390f35b34801561032c57600080fd5b50610335610e96565b6040518082815260200191505060405180910390f35b34801561035757600080fd5b50610360610e9c565b6040518082815260200191505060405180910390f35b34801561038257600080fd5b5061038b610ea2565b6040518082815260200191505060405180910390f35b3480156103ad57600080fd5b506103b6610ea8565b005b3480156103c457600080fd5b506103cd6110f4565b6040518082815260200191505060405180910390f35b3480156103ef57600080fd5b506103f86110fa565b6040518080602001828103825283818151815260200191508051906020019080838360005b8381101561043857808201518184015260208101905061041d565b50505050905090810190601f1680156104655780820380516001836020036101000a031916815260200191505b509250505060405180910390f35b34801561047f57600080fd5b50610488611198565b6040518080602001828103825283818151815260200191508051906020019080838360005b838110156104c85780820151818401526020810190506104ad565b50505050905090810190601f1680156104f55780820380516001836020036101000a031916815260200191505b509250505060405180910390f35b60048054600181600116156101000203166002900480601f0160208091040260200160405190810160405280929190818152602001828054600181600116156101000203166002900480156105995780601f1061056e57610100808354040283529160200191610599565b820191906000526020600020905b81548152906001019060200180831161057c57829003601f168201915b505050505081565b600160009054906101000a900473ffffffffffffffffffffffffffffffffffffffff1681565b3373ffffffffffffffffffffffffffffffffffffffff16600160009054906101000a900473ffffffffffffffffffffffffffffffffffffffff1673ffffffffffffffffffffffffffffffffffffffff161461068a576040517f08c379a000000000000000000000000000000000000000000000000000000000815260040180806020018281038252601d8152602001807f4f6e6c792073656c6c65722063616e207369676e20636f6e747261637400000081525060200191505060405180910390fd5b6000600581111561069757fe5b6000809054906101000a900460ff1660058111156106b157fe5b14610724576040517f08c379a00000000000000000000000000000000000000000000000000000000081526004018080602001828103825260148152602001807f57726f6e6720636f6e747261637420737461746500000000000000000000000081525060200191505060405180910390fd5b60016000806101000a81548160ff0219169083600581111561074257fe5b0217905550565b3373ffffffffffffffffffffffffffffffffffffffff16600260009054906101000a900473ffffffffffffffffffffffffffffffffffffffff1673ffffffffffffffffffffffffffffffffffffffff16146107ef576040517f08c379a000000000000000000000000000000000000000000000000000000000815260040180806020018281038252602381526020018061130f6023913960400191505060405180910390fd5b600360058111156107fc57fe5b6000809054906101000a900460ff16600581111561081657fe5b14610889576040517f08c379a00000000000000000000000000000000000000000000000000000000081526004018080602001828103825260148152602001807f57726f6e6720636f6e747261637420737461746500000000000000000000000081525060200191505060405180910390fd5b6007546008543401146108e7576040517f08c379a000000000000000000000000000000000000000000000000000000000815260040180806020018281038252603f815260200180611294603f913960400191505060405180910390fd5b60046000806101000a81548160ff0219169083600581111561090557fe5b0217905550600160009054906101000a900473ffffffffffffffffffffffffffffffffffffffff1673ffffffffffffffffffffffffffffffffffffffff166108fc600654600754039081150290604051600060405180830381858888f19350505050158015610978573d6000803e3d6000fd5b50600060019054906101000a900473ffffffffffffffffffffffffffffffffffffffff1673ffffffffffffffffffffffffffffffffffffffff166108fc6006549081150290604051600060405180830381858888f193505050501580156109e3573d6000803e3d6000fd5b50565b600060019054906101000a900473ffffffffffffffffffffffffffffffffffffffff1681565b3373ffffffffffffffffffffffffffffffffffffffff16600260009054906101000a900473ffffffffffffffffffffffffffffffffffffffff1673ffffffffffffffffffffffffffffffffffffffff1614610acf576040517f08c379a000000000000000000000000000000000000000000000000000000000815260040180806020018281038252601c8152602001807f4f6e6c792062757965722063616e207369676e20636f6e74726163740000000081525060200191505060405180910390fd5b60016005811115610adc57fe5b6000809054906101000a900460ff166005811115610af657fe5b14610b69576040517f08c379a00000000000000000000000000000000000000000000000000000000081526004018080602001828103825260148152602001807f57726f6e6720636f6e747261637420737461746500000000000000000000000081525060200191505060405180910390fd5b6064600a6007540281610b7857fe5b043410158015610b8a57506007543411155b610bdf576040517f08c379a000000000000000000000000000000000000000000000000000000000815260040180806020018281038252603c8152602001806112d3603c913960400191505060405180910390fd5b60026000806101000a81548160ff02191690836005811115610bfd57fe5b02179055503460088190555061012c4201600981905550565b3373ffffffffffffffffffffffffffffffffffffffff16600060019054906101000a900473ffffffffffffffffffffffffffffffffffffffff1673ffffffffffffffffffffffffffffffffffffffff1614610cbc576040517f08c379a000000000000000000000000000000000000000000000000000000000815260040180806020018281038252602a81526020018061126a602a913960400191505060405180910390fd5b60026005811115610cc957fe5b6000809054906101000a900460ff166005811115610ce357fe5b14610d56576040517f08c379a00000000000000000000000000000000000000000000000000000000081526004018080602001828103825260148152602001807f57726f6e6720636f6e747261637420737461746500000000000000000000000081525060200191505060405180910390fd5b8015610da8576001600a60006101000a81548160ff02191690836002811115610d7b57fe5b021790555060036000806101000a81548160ff02191690836005811115610d9e57fe5b0217905550610e5b565b6002600a60006101000a81548160ff02191690836002811115610dc757fe5b021790555060056000806101000a81548160ff02191690836005811115610dea57fe5b0217905550600260009054906101000a900473ffffffffffffffffffffffffffffffffffffffff1673ffffffffffffffffffffffffffffffffffffffff166108fc6008549081150290604051600060405180830381858888f19350505050158015610e59573d6000803e3d6000fd5b505b50565b600260009054906101000a900473ffffffffffffffffffffffffffffffffffffffff1681565b6000809054906101000a900460ff1681565b60065481565b60075481565b60095481565b3373ffffffffffffffffffffffffffffffffffffffff16600260009054906101000a900473ffffffffffffffffffffffffffffffffffffffff1673ffffffffffffffffffffffffffffffffffffffff161480610f0657504260095411155b610f5b576040517f08c379a00000000000000000000000000000000000000000000000000000000081526004018080602001828103825260338152602001806112376033913960400191505060405180910390fd5b60036005811115610f6857fe5b6000809054906101000a900460ff166005811115610f8257fe5b14610ff5576040517f08c379a00000000000000000000000000000000000000000000000000000000081526004018080602001828103825260148152602001807f57726f6e6720636f6e747261637420737461746500000000000000000000000081525060200191505060405180910390fd5b60056000806101000a81548160ff0219169083600581111561101357fe5b0217905550600160009054906101000a900473ffffffffffffffffffffffffffffffffffffffff1673ffffffffffffffffffffffffffffffffffffffff166108fc600654600854039081150290604051600060405180830381858888f19350505050158015611086573d6000803e3d6000fd5b50600060019054906101000a900473ffffffffffffffffffffffffffffffffffffffff1673ffffffffffffffffffffffffffffffffffffffff166108fc6006549081150290604051600060405180830381858888f193505050501580156110f1573d6000803e3d6000fd5b50565b60085481565b60038054600181600116156101000203166002900480601f0160208091040260200160405190810160405280929190818152602001828054600181600116156101000203166002900480156111905780601f1061116557610100808354040283529160200191611190565b820191906000526020600020905b81548152906001019060200180831161117357829003601f168201915b505050505081565b60058054600181600116156101000203166002900480601f01602080910402602001604051908101604052809291908181526020018280546001816001161561010002031660029004801561122e5780601f106112035761010080835404028352916020019161122e565b820191906000526020600020905b81548152906001019060200180831161121157829003601f168201915b50505050508156fe4f6e6c792062757965722063616e207769746864726177206265666f7265207472616e73616374696f6e20646561646c696e654f6e6c79207265616c746f722063616e2072657669657720636c6f73696e6720636f6e646974696f6e734275796572206e6565647320746f20706179207468652072657374206f662074686520636f737420746f2066696e616c697a65207472616e73616374696f6e4275796572206e6565647320746f206465706f736974206265747765656e2031302520616e64203130302520746f207369676e20636f6e74726163744f6e6c792062757965722063616e2066696e616c697a65207472616e73616374696f6ea265627a7a72315820ecd3363855e21596480be5a0f3755167a45b1405d789e7d3e1f190b3bfa2268f64736f6c634300051000325072696365206e6565647320746f206265206d6f7265207468616e207265616c746f722066656521a265627a7a72315820d72151a18d479293f91e88d5d869a73f3f44a1e63653e153aa487f561953b20564736f6c63430005100032",
  "source": "// SPDX-License-Identifier: MIT\npragma solidity >=0.4.22 <0.9.0;\n\nimport \"./HomeTransaction.sol\";\n\ncontract Factory {\n  HomeTransaction[] contracts;\n\n  function create(\n        string memory _address,\n        string memory _zip,\n        string memory _city,\n        uint _realtorFee,\n        uint _price,\n        address payable _seller,\n        address payable _buyer) public returns(HomeTransaction homeTransaction)  {\n          \n    homeTransaction = new HomeTransaction(\n      _address,\n      _zip,\n      _city,\n      _realtorFee,\n      _price,\n      msg.sender,\n      _seller,\n      _buyer);\n    contracts.push(homeTransaction);\n  }\n\n  function getInstance(uint index) public view returns (HomeTransaction instance) {\n    require(index < contracts.length, \"index out of range\");\n\n    instance = contracts[index];\n  }\n\n  function getInstances() public view returns (HomeTransaction[] memory instances) {\n    instances = contracts;\n  }\n\n  function getInstanceCount() public view returns (uint count) {\n    count = contracts.length;\n  }\n}\n",
  "sourcePath": "/Users/yoann/5BLOC/finguers/contracts/Factory.sol",
  "compiler": {
    "name": "solc",
    "version": "0.5.16+commit.9c3226ce.Emscripten.clang"
  },
  "schemaVersion": "3.3.4",
  "updatedAt": "2021-02-28T17:42:27.433Z",
  "devdoc": {
    "methods": {}
  },
  "userdoc": {
    "methods": {}
  }
}