{
  "contractName": "HomeTransaction",
  "abi": [
    {
      "inputs": [
        {
          "internalType": "string",
          "name": "_address",
          "type": "string"
        },
        {
          "internalType": "string",
          "name": "_picture",
          "type": "string"
        },
        {
          "internalType": "string",
          "name": "_city",
          "type": "string"
        },
        {
          "internalType": "uint256",
          "name": "_realtorFee",
          "type": "uint256"
        },
        {
          "internalType": "uint256",
          "name": "_price",
          "type": "uint256"
        },
        {
          "internalType": "address payable",
          "name": "_seller",
          "type": "address"
        },
        {
          "internalType": "address payable",
          "name": "_owner",
          "type": "address"
        },
        {
          "internalType": "uint256",
          "name": "_tokenId",
          "type": "uint256"
        }
      ],
      "payable": false,
      "stateMutability": "nonpayable",
      "type": "constructor"
    },
    {
      "constant": true,
      "inputs": [],
      "name": "buyer",
      "outputs": [
        {
          "internalType": "address payable",
          "name": "",
          "type": "address"
        }
      ],
      "payable": false,
      "stateMutability": "view",
      "type": "function"
    },
    {
      "constant": true,
      "inputs": [],
      "name": "city",
      "outputs": [
        {
          "internalType": "string",
          "name": "",
          "type": "string"
        }
      ],
      "payable": false,
      "stateMutability": "view",
      "type": "function"
    },
    {
      "constant": true,
      "inputs": [],
      "name": "contractState",
      "outputs": [
        {
          "internalType": "enum HomeTransaction.ContractState",
          "name": "",
          "type": "uint8"
        }
      ],
      "payable": false,
      "stateMutability": "view",
      "type": "function"
    },
    {
      "constant": true,
      "inputs": [],
      "name": "deposit",
      "outputs": [
        {
          "internalType": "uint256",
          "name": "",
          "type": "uint256"
        }
      ],
      "payable": false,
      "stateMutability": "view",
      "type": "function"
    },
    {
      "constant": true,
      "inputs": [],
      "name": "homeAddress",
      "outputs": [
        {
          "internalType": "string",
          "name": "",
          "type": "string"
        }
      ],
      "payable": false,
      "stateMutability": "view",
      "type": "function"
    },
    {
      "constant": true,
      "inputs": [],
      "name": "nbTransaction",
      "outputs": [
        {
          "internalType": "uint256",
          "name": "",
          "type": "uint256"
        }
      ],
      "payable": false,
      "stateMutability": "view",
      "type": "function"
    },
    {
      "constant": true,
      "inputs": [],
      "name": "owner",
      "outputs": [
        {
          "internalType": "address payable",
          "name": "",
          "type": "address"
        }
      ],
      "payable": false,
      "stateMutability": "view",
      "type": "function"
    },
    {
      "constant": true,
      "inputs": [],
      "name": "picture",
      "outputs": [
        {
          "internalType": "string",
          "name": "",
          "type": "string"
        }
      ],
      "payable": false,
      "stateMutability": "view",
      "type": "function"
    },
    {
      "constant": true,
      "inputs": [],
      "name": "price",
      "outputs": [
        {
          "internalType": "uint256",
          "name": "",
          "type": "uint256"
        }
      ],
      "payable": false,
      "stateMutability": "view",
      "type": "function"
    },
    {
      "constant": true,
      "inputs": [],
      "name": "realtorFee",
      "outputs": [
        {
          "internalType": "uint256",
          "name": "",
          "type": "uint256"
        }
      ],
      "payable": false,
      "stateMutability": "view",
      "type": "function"
    },
    {
      "constant": true,
      "inputs": [],
      "name": "seller",
      "outputs": [
        {
          "internalType": "address payable",
          "name": "",
          "type": "address"
        }
      ],
      "payable": false,
      "stateMutability": "view",
      "type": "function"
    },
    {
      "constant": true,
      "inputs": [],
      "name": "tokenId",
      "outputs": [
        {
          "internalType": "uint256",
          "name": "",
          "type": "uint256"
        }
      ],
      "payable": false,
      "stateMutability": "view",
      "type": "function"
    },
    {
      "constant": false,
      "inputs": [],
      "name": "sellerToSell",
      "outputs": [],
      "payable": true,
      "stateMutability": "payable",
      "type": "function"
    },
    {
      "constant": false,
      "inputs": [],
      "name": "sellerNotToSell",
      "outputs": [],
      "payable": true,
      "stateMutability": "payable",
      "type": "function"
    },
    {
      "constant": false,
      "inputs": [],
      "name": "buyerFinalizeTransaction",
      "outputs": [],
      "payable": true,
      "stateMutability": "payable",
      "type": "function"
    }
  ],
  "bytecode": "0x608060405260016000806101000a81548160ff021916908360018111156200002357fe5b02179055503480156200003557600080fd5b5060405162000ef938038062000ef983398181016040526101008110156200005c57600080fd5b81019080805160405193929190846401000000008211156200007d57600080fd5b838201915060208201858111156200009457600080fd5b8251866001820283011164010000000082111715620000b257600080fd5b8083526020830192505050908051906020019080838360005b83811015620000e8578082015181840152602081019050620000cb565b50505050905090810190601f168015620001165780820380516001836020036101000a031916815260200191505b50604052602001805160405193929190846401000000008211156200013a57600080fd5b838201915060208201858111156200015157600080fd5b82518660018202830111640100000000821117156200016f57600080fd5b8083526020830192505050908051906020019080838360005b83811015620001a557808201518184015260208101905062000188565b50505050905090810190601f168015620001d35780820380516001836020036101000a031916815260200191505b5060405260200180516040519392919084640100000000821115620001f757600080fd5b838201915060208201858111156200020e57600080fd5b82518660018202830111640100000000821117156200022c57600080fd5b8083526020830192505050908051906020019080838360005b838110156200026257808201518184015260208101905062000245565b50505050905090810190601f168015620002905780820380516001836020036101000a031916815260200191505b50604052602001805190602001909291908051906020019092919080519060200190929190805190602001909291908051906020019092919050505082600060016101000a81548173ffffffffffffffffffffffffffffffffffffffff021916908373ffffffffffffffffffffffffffffffffffffffff160217905550876003908051906020019062000325929190620003c4565b5086600490805190602001906200033e929190620003c4565b50856005908051906020019062000357929190620003c4565b50836007819055508460068190555081600260006101000a81548173ffffffffffffffffffffffffffffffffffffffff021916908373ffffffffffffffffffffffffffffffffffffffff160217905550600060088190555080600981905550505050505050505062000473565b828054600181600116156101000203166002900490600052602060002090601f016020900481019282601f106200040757805160ff191683800117855562000438565b8280016001018555821562000438579182015b82811115620004375782518255916020019190600101906200041a565b5b5090506200044791906200044b565b5090565b6200047091905b808211156200046c57600081600090555060010162000452565b5090565b90565b610a7680620004836000396000f3fe6080604052600436106100e85760003560e01c80638da5cb5b1161008a578063d0e30db011610059578063d0e30db01461037b578063f32a7e51146103a6578063f629ad30146103b0578063fd0160fe14610440576100e8565b80638da5cb5b146102c4578063968e28e81461031b57806398f427cf14610346578063a035b1fe14610350576100e8565b806367a6fcfb116100c657806367a6fcfb146101795780637150d8ae146101a45780637b1e9cf8146101fb57806385209ee01461028b576100e8565b806308551a53146100ed57806317d70f7c146101445780632323f8f51461016f575b600080fd5b3480156100f957600080fd5b506101026104d0565b604051808273ffffffffffffffffffffffffffffffffffffffff1673ffffffffffffffffffffffffffffffffffffffff16815260200191505060405180910390f35b34801561015057600080fd5b506101596104f6565b6040518082815260200191505060405180910390f35b6101776104fc565b005b34801561018557600080fd5b5061018e610692565b6040518082815260200191505060405180910390f35b3480156101b057600080fd5b506101b9610698565b604051808273ffffffffffffffffffffffffffffffffffffffff1673ffffffffffffffffffffffffffffffffffffffff16815260200191505060405180910390f35b34801561020757600080fd5b506102106106be565b6040518080602001828103825283818151815260200191508051906020019080838360005b83811015610250578082015181840152602081019050610235565b50505050905090810190601f16801561027d5780820380516001836020036101000a031916815260200191505b509250505060405180910390f35b34801561029757600080fd5b506102a061075c565b604051808260018111156102b057fe5b60ff16815260200191505060405180910390f35b3480156102d057600080fd5b506102d961076e565b604051808273ffffffffffffffffffffffffffffffffffffffff1673ffffffffffffffffffffffffffffffffffffffff16815260200191505060405180910390f35b34801561032757600080fd5b50610330610794565b6040518082815260200191505060405180910390f35b61034e61079a565b005b34801561035c57600080fd5b50610365610849565b6040518082815260200191505060405180910390f35b34801561038757600080fd5b5061039061084f565b6040518082815260200191505060405180910390f35b6103ae610855565b005b3480156103bc57600080fd5b506103c5610905565b6040518080602001828103825283818151815260200191508051906020019080838360005b838110156104055780820151818401526020810190506103ea565b50505050905090810190601f1680156104325780820380516001836020036101000a031916815260200191505b509250505060405180910390f35b34801561044c57600080fd5b506104556109a3565b6040518080602001828103825283818151815260200191508051906020019080838360005b8381101561049557808201518184015260208101905061047a565b50505050905090810190601f1680156104c25780820380516001836020036101000a031916815260200191505b509250505060405180910390f35b600060019054906101000a900473ffffffffffffffffffffffffffffffffffffffff1681565b60095481565b6000600181111561050957fe5b6000809054906101000a900460ff16600181111561052357fe5b1461052d57600080fd5b34600a81905550600060646006548161054257fe5b04600a54029050600260009054906101000a900473ffffffffffffffffffffffffffffffffffffffff1673ffffffffffffffffffffffffffffffffffffffff166108fc829081150290604051600060405180830381858888f193505050501580156105b1573d6000803e3d6000fd5b50600060019054906101000a900473ffffffffffffffffffffffffffffffffffffffff1673ffffffffffffffffffffffffffffffffffffffff166108fc82600a54039081150290604051600060405180830381858888f1935050505015801561061e573d6000803e3d6000fd5b5060016000806101000a81548160ff0219169083600181111561063d57fe5b021790555060016008540160088190555033600060016101000a81548173ffffffffffffffffffffffffffffffffffffffff021916908373ffffffffffffffffffffffffffffffffffffffff16021790555050565b60085481565b600160009054906101000a900473ffffffffffffffffffffffffffffffffffffffff1681565b60048054600181600116156101000203166002900480601f0160208091040260200160405190810160405280929190818152602001828054600181600116156101000203166002900480156107545780601f1061072957610100808354040283529160200191610754565b820191906000526020600020905b81548152906001019060200180831161073757829003601f168201915b505050505081565b6000809054906101000a900460ff1681565b600260009054906101000a900473ffffffffffffffffffffffffffffffffffffffff1681565b60065481565b3373ffffffffffffffffffffffffffffffffffffffff16600060019054906101000a900473ffffffffffffffffffffffffffffffffffffffff1673ffffffffffffffffffffffffffffffffffffffff16146107f457600080fd5b60018081111561080057fe5b6000809054906101000a900460ff16600181111561081a57fe5b1461082457600080fd5b60008060006101000a81548160ff0219169083600181111561084257fe5b0217905550565b60075481565b600a5481565b3373ffffffffffffffffffffffffffffffffffffffff16600060019054906101000a900473ffffffffffffffffffffffffffffffffffffffff1673ffffffffffffffffffffffffffffffffffffffff16146108af57600080fd5b600060018111156108bc57fe5b6000809054906101000a900460ff1660018111156108d657fe5b146108e057600080fd5b60016000806101000a81548160ff021916908360018111156108fe57fe5b0217905550565b60038054600181600116156101000203166002900480601f01602080910402602001604051908101604052809291908181526020018280546001816001161561010002031660029004801561099b5780601f106109705761010080835404028352916020019161099b565b820191906000526020600020905b81548152906001019060200180831161097e57829003601f168201915b505050505081565b60058054600181600116156101000203166002900480601f016020809104026020016040519081016040528092919081815260200182805460018160011615610100020316600290048015610a395780601f10610a0e57610100808354040283529160200191610a39565b820191906000526020600020905b815481529060010190602001808311610a1c57829003601f168201915b50505050508156fea265627a7a7231582038e56e8dc284e5d7445e3c950a3aa3614b1192c6810776a0d673a85b03c6e2ca64736f6c63430005100032",
  "source": "// SPDX-License-Identifier: MIT\npragma solidity >=0.4.22 <0.9.0;\n\ncontract HomeTransaction {\n    \n\n    enum ContractState {\n        ToSell,\n        NotToSell\n    }\n\n    ContractState public contractState = ContractState.NotToSell;\n\n    \n    \n    address payable public seller;\n    address payable public buyer;\n    address payable public owner;\n\n\n    string public homeAddress;\n    string public picture;\n    string public city;\n    uint public realtorFee;\n    uint public price;\n    uint public nbTransaction;\n    uint public tokenId;\n\n    uint public deposit;\n    \n    \n\n    constructor(\n        string memory _address,\n        string memory _picture,\n        string memory _city,\n        uint _realtorFee,\n        uint _price,\n        address payable _seller,\n        address payable _owner,\n        uint _tokenId\n    ) public {\n        \n        seller = _seller;\n        homeAddress = _address;\n        picture = _picture;\n        city = _city;\n        price = _price;\n        realtorFee = _realtorFee;\n        owner = _owner;\n        nbTransaction = 0;\n        tokenId = _tokenId;\n    }\n\n    function sellerToSell() public payable {\n        require(seller == msg.sender);\n\n        require(contractState == ContractState.NotToSell);\n\n        contractState = ContractState.ToSell;\n    }\n    function sellerNotToSell() public payable {\n        require(seller == msg.sender);\n\n        require(contractState == ContractState.ToSell);\n\n        contractState = ContractState.NotToSell;\n    }\n\n    function buyerFinalizeTransaction() public payable {\n\n\n        require(contractState == ContractState.ToSell);\n       \n        // require(msg.value == _price); ça marche pas la putain de sa ....\n\n        deposit = msg.value;\n        \n        uint fee = deposit * (realtorFee / 100);\n        \n        owner.transfer(fee);\n        seller.transfer(deposit-fee);\n        contractState = ContractState.NotToSell;  \n        nbTransaction = nbTransaction + 1;\n        seller = msg.sender; \n        \n\n    }\n}\n",
  "sourcePath": "/Users/yoann/5BLOC/finguers/contracts/HomeTransaction.sol",
  "compiler": {
    "name": "solc",
    "version": "0.5.16+commit.9c3226ce.Emscripten.clang"
  },
  "schemaVersion": "3.3.4",
  "updatedAt": "2021-03-02T20:28:16.116Z",
  "devdoc": {
    "methods": {}
  },
  "userdoc": {
    "methods": {}
  }
}