{
  "contractName": "HomeTransaction",
  "abi": [
    {
      "inputs": [
        {
          "internalType": "string",
          "name": "_address",
          "type": "string"
        },
        {
          "internalType": "string",
          "name": "_picture",
          "type": "string"
        },
        {
          "internalType": "string",
          "name": "_city",
          "type": "string"
        },
        {
          "internalType": "uint256",
          "name": "_realtorFee",
          "type": "uint256"
        },
        {
          "internalType": "uint256",
          "name": "_price",
          "type": "uint256"
        },
        {
          "internalType": "address payable",
          "name": "_seller",
          "type": "address"
        },
        {
          "internalType": "address payable",
          "name": "_owner",
          "type": "address"
        }
      ],
      "payable": false,
      "stateMutability": "nonpayable",
      "type": "constructor"
    },
    {
      "constant": true,
      "inputs": [],
      "name": "buyer",
      "outputs": [
        {
          "internalType": "address payable",
          "name": "",
          "type": "address"
        }
      ],
      "payable": false,
      "stateMutability": "view",
      "type": "function"
    },
    {
      "constant": true,
      "inputs": [],
      "name": "city",
      "outputs": [
        {
          "internalType": "string",
          "name": "",
          "type": "string"
        }
      ],
      "payable": false,
      "stateMutability": "view",
      "type": "function"
    },
    {
      "constant": true,
      "inputs": [],
      "name": "contractState",
      "outputs": [
        {
          "internalType": "enum HomeTransaction.ContractState",
          "name": "",
          "type": "uint8"
        }
      ],
      "payable": false,
      "stateMutability": "view",
      "type": "function"
    },
    {
      "constant": true,
      "inputs": [],
      "name": "deposit",
      "outputs": [
        {
          "internalType": "uint256",
          "name": "",
          "type": "uint256"
        }
      ],
      "payable": false,
      "stateMutability": "view",
      "type": "function"
    },
    {
      "constant": true,
      "inputs": [],
      "name": "homeAddress",
      "outputs": [
        {
          "internalType": "string",
          "name": "",
          "type": "string"
        }
      ],
      "payable": false,
      "stateMutability": "view",
      "type": "function"
    },
    {
      "constant": true,
      "inputs": [],
      "name": "nbTransaction",
      "outputs": [
        {
          "internalType": "uint256",
          "name": "",
          "type": "uint256"
        }
      ],
      "payable": false,
      "stateMutability": "view",
      "type": "function"
    },
    {
      "constant": true,
      "inputs": [],
      "name": "owner",
      "outputs": [
        {
          "internalType": "address payable",
          "name": "",
          "type": "address"
        }
      ],
      "payable": false,
      "stateMutability": "view",
      "type": "function"
    },
    {
      "constant": true,
      "inputs": [],
      "name": "picture",
      "outputs": [
        {
          "internalType": "string",
          "name": "",
          "type": "string"
        }
      ],
      "payable": false,
      "stateMutability": "view",
      "type": "function"
    },
    {
      "constant": true,
      "inputs": [],
      "name": "price",
      "outputs": [
        {
          "internalType": "uint256",
          "name": "",
          "type": "uint256"
        }
      ],
      "payable": false,
      "stateMutability": "view",
      "type": "function"
    },
    {
      "constant": true,
      "inputs": [],
      "name": "realtorFee",
      "outputs": [
        {
          "internalType": "uint256",
          "name": "",
          "type": "uint256"
        }
      ],
      "payable": false,
      "stateMutability": "view",
      "type": "function"
    },
    {
      "constant": true,
      "inputs": [],
      "name": "seller",
      "outputs": [
        {
          "internalType": "address payable",
          "name": "",
          "type": "address"
        }
      ],
      "payable": false,
      "stateMutability": "view",
      "type": "function"
    },
    {
      "constant": false,
      "inputs": [],
      "name": "sellerToSell",
      "outputs": [],
      "payable": true,
      "stateMutability": "payable",
      "type": "function"
    },
    {
      "constant": false,
      "inputs": [],
      "name": "sellerNotToSell",
      "outputs": [],
      "payable": true,
      "stateMutability": "payable",
      "type": "function"
    },
    {
      "constant": false,
      "inputs": [],
      "name": "buyerFinalizeTransaction",
      "outputs": [],
      "payable": true,
      "stateMutability": "payable",
      "type": "function"
    }
  ],
  "bytecode": "0x608060405260016000806101000a81548160ff021916908360018111156200002357fe5b02179055503480156200003557600080fd5b50604051620010aa380380620010aa833981810160405260e08110156200005b57600080fd5b81019080805160405193929190846401000000008211156200007c57600080fd5b838201915060208201858111156200009357600080fd5b8251866001820283011164010000000082111715620000b157600080fd5b8083526020830192505050908051906020019080838360005b83811015620000e7578082015181840152602081019050620000ca565b50505050905090810190601f168015620001155780820380516001836020036101000a031916815260200191505b50604052602001805160405193929190846401000000008211156200013957600080fd5b838201915060208201858111156200015057600080fd5b82518660018202830111640100000000821117156200016e57600080fd5b8083526020830192505050908051906020019080838360005b83811015620001a457808201518184015260208101905062000187565b50505050905090810190601f168015620001d25780820380516001836020036101000a031916815260200191505b5060405260200180516040519392919084640100000000821115620001f657600080fd5b838201915060208201858111156200020d57600080fd5b82518660018202830111640100000000821117156200022b57600080fd5b8083526020830192505050908051906020019080838360005b838110156200026157808201518184015260208101905062000244565b50505050905090810190601f1680156200028f5780820380516001836020036101000a031916815260200191505b506040526020018051906020019092919080519060200190929190805190602001909291908051906020019092919050505081600060016101000a81548173ffffffffffffffffffffffffffffffffffffffff021916908373ffffffffffffffffffffffffffffffffffffffff16021790555086600390805190602001906200031a929190620003b1565b50856004908051906020019062000333929190620003b1565b5084600590805190602001906200034c929190620003b1565b50826007819055508360068190555080600260006101000a81548173ffffffffffffffffffffffffffffffffffffffff021916908373ffffffffffffffffffffffffffffffffffffffff16021790555060006008819055505050505050505062000460565b828054600181600116156101000203166002900490600052602060002090601f016020900481019282601f10620003f457805160ff191683800117855562000425565b8280016001018555821562000425579182015b828111156200042457825182559160200191906001019062000407565b5b50905062000434919062000438565b5090565b6200045d91905b80821115620004595760008160009055506001016200043f565b5090565b90565b610c3a80620004706000396000f3fe6080604052600436106100dd5760003560e01c8063968e28e81161007f578063d0e30db011610059578063d0e30db014610345578063f32a7e5114610370578063f629ad301461037a578063fd0160fe1461040a576100dd565b8063968e28e8146102e557806398f427cf14610310578063a035b1fe1461031a576100dd565b80637150d8ae116100bb5780637150d8ae1461016e5780637b1e9cf8146101c557806385209ee0146102555780638da5cb5b1461028e576100dd565b806308551a53146100e25780632323f8f51461013957806367a6fcfb14610143575b600080fd5b3480156100ee57600080fd5b506100f761049a565b604051808273ffffffffffffffffffffffffffffffffffffffff1673ffffffffffffffffffffffffffffffffffffffff16815260200191505060405180910390f35b6101416104c0565b005b34801561014f57600080fd5b506101586106b2565b6040518082815260200191505060405180910390f35b34801561017a57600080fd5b506101836106b8565b604051808273ffffffffffffffffffffffffffffffffffffffff1673ffffffffffffffffffffffffffffffffffffffff16815260200191505060405180910390f35b3480156101d157600080fd5b506101da6106de565b6040518080602001828103825283818151815260200191508051906020019080838360005b8381101561021a5780820151818401526020810190506101ff565b50505050905090810190601f1680156102475780820380516001836020036101000a031916815260200191505b509250505060405180910390f35b34801561026157600080fd5b5061026a61077c565b6040518082600181111561027a57fe5b60ff16815260200191505060405180910390f35b34801561029a57600080fd5b506102a361078e565b604051808273ffffffffffffffffffffffffffffffffffffffff1673ffffffffffffffffffffffffffffffffffffffff16815260200191505060405180910390f35b3480156102f157600080fd5b506102fa6107b4565b6040518082815260200191505060405180910390f35b6103186107ba565b005b34801561032657600080fd5b5061032f61093b565b6040518082815260200191505060405180910390f35b34801561035157600080fd5b5061035a610941565b6040518082815260200191505060405180910390f35b610378610947565b005b34801561038657600080fd5b5061038f610ac9565b6040518080602001828103825283818151815260200191508051906020019080838360005b838110156103cf5780820151818401526020810190506103b4565b50505050905090810190601f1680156103fc5780820380516001836020036101000a031916815260200191505b509250505060405180910390f35b34801561041657600080fd5b5061041f610b67565b6040518080602001828103825283818151815260200191508051906020019080838360005b8381101561045f578082015181840152602081019050610444565b50505050905090810190601f16801561048c5780820380516001836020036101000a031916815260200191505b509250505060405180910390f35b600060019054906101000a900473ffffffffffffffffffffffffffffffffffffffff1681565b600060018111156104cd57fe5b6000809054906101000a900460ff1660018111156104e757fe5b1461055a576040517f08c379a00000000000000000000000000000000000000000000000000000000081526004018080602001828103825260148152602001807f57726f6e6720636f6e747261637420737461746500000000000000000000000081525060200191505060405180910390fd5b60075434146105d1576040517f08c379a00000000000000000000000000000000000000000000000000000000081526004018080602001828103825260138152602001807f506179207468652065786163742070726963650000000000000000000000000081525060200191505060405180910390fd5b600060019054906101000a900473ffffffffffffffffffffffffffffffffffffffff1673ffffffffffffffffffffffffffffffffffffffff166108fc349081150290604051600060405180830381858888f19350505050158015610639573d6000803e3d6000fd5b5060016000806101000a81548160ff0219169083600181111561065857fe5b021790555033600060016101000a81548173ffffffffffffffffffffffffffffffffffffffff021916908373ffffffffffffffffffffffffffffffffffffffff160217905550600860008154809291906001019190505550565b60085481565b600160009054906101000a900473ffffffffffffffffffffffffffffffffffffffff1681565b60048054600181600116156101000203166002900480601f0160208091040260200160405190810160405280929190818152602001828054600181600116156101000203166002900480156107745780601f1061074957610100808354040283529160200191610774565b820191906000526020600020905b81548152906001019060200180831161075757829003601f168201915b505050505081565b6000809054906101000a900460ff1681565b600260009054906101000a900473ffffffffffffffffffffffffffffffffffffffff1681565b60065481565b3373ffffffffffffffffffffffffffffffffffffffff16600060019054906101000a900473ffffffffffffffffffffffffffffffffffffffff1673ffffffffffffffffffffffffffffffffffffffff161461087d576040517f08c379a000000000000000000000000000000000000000000000000000000000815260040180806020018281038252601d8152602001807f4f6e6c792073656c6c65722063616e207369676e20636f6e747261637400000081525060200191505060405180910390fd5b60018081111561088957fe5b6000809054906101000a900460ff1660018111156108a357fe5b14610916576040517f08c379a00000000000000000000000000000000000000000000000000000000081526004018080602001828103825260148152602001807f57726f6e6720636f6e747261637420737461746500000000000000000000000081525060200191505060405180910390fd5b60008060006101000a81548160ff0219169083600181111561093457fe5b0217905550565b60075481565b60095481565b3373ffffffffffffffffffffffffffffffffffffffff16600060019054906101000a900473ffffffffffffffffffffffffffffffffffffffff1673ffffffffffffffffffffffffffffffffffffffff1614610a0a576040517f08c379a000000000000000000000000000000000000000000000000000000000815260040180806020018281038252601d8152602001807f4f6e6c792073656c6c65722063616e207369676e20636f6e747261637400000081525060200191505060405180910390fd5b60006001811115610a1757fe5b6000809054906101000a900460ff166001811115610a3157fe5b14610aa4576040517f08c379a00000000000000000000000000000000000000000000000000000000081526004018080602001828103825260148152602001807f57726f6e6720636f6e747261637420737461746500000000000000000000000081525060200191505060405180910390fd5b60016000806101000a81548160ff02191690836001811115610ac257fe5b0217905550565b60038054600181600116156101000203166002900480601f016020809104026020016040519081016040528092919081815260200182805460018160011615610100020316600290048015610b5f5780601f10610b3457610100808354040283529160200191610b5f565b820191906000526020600020905b815481529060010190602001808311610b4257829003601f168201915b505050505081565b60058054600181600116156101000203166002900480601f016020809104026020016040519081016040528092919081815260200182805460018160011615610100020316600290048015610bfd5780601f10610bd257610100808354040283529160200191610bfd565b820191906000526020600020905b815481529060010190602001808311610be057829003601f168201915b50505050508156fea265627a7a723158204f6909d7f28b36c85e8ffc673adc88d53210472983947ee25c8eed100cd470af64736f6c63430005100032",
  "source": "// SPDX-License-Identifier: MIT\npragma solidity >=0.4.22 <0.9.0;\n\ncontract HomeTransaction {\n    \n\n    enum ContractState {\n        ToSell,\n        NotToSell\n    }\n\n    ContractState public contractState = ContractState.NotToSell;\n\n    \n    // Roles acting on contract\n    address payable public seller;\n    address payable public buyer;\n    address payable public owner;\n\n    // Contract details\n    string public homeAddress;\n    string public picture;\n    string public city;\n    uint public realtorFee;\n    uint public price;\n    uint public nbTransaction;\n\n    uint public deposit;\n    \n\n    constructor(\n        string memory _address,\n        string memory _picture,\n        string memory _city,\n        uint _realtorFee,\n        uint _price,\n        address payable _seller,\n        address payable _owner\n    ) public {\n        \n        seller = _seller;\n        homeAddress = _address;\n        picture = _picture;\n        city = _city;\n        price = _price;\n        realtorFee = _realtorFee;\n        owner = _owner;\n        nbTransaction = 0;\n    }\n\n    function sellerToSell() public payable {\n        require(seller == msg.sender, \"Only seller can sign contract\");\n\n        require(contractState == ContractState.NotToSell, \"Wrong contract state\");\n\n        contractState = ContractState.ToSell;\n    }\n    function sellerNotToSell() public payable {\n        require(seller == msg.sender, \"Only seller can sign contract\");\n\n        require(contractState == ContractState.ToSell, \"Wrong contract state\");\n\n        contractState = ContractState.NotToSell;\n    }\n\n    function buyerFinalizeTransaction() public payable {\n        // require(buyer == msg.sender, \"Only buyer can finalize transaction\");\n\n        require(contractState == ContractState.ToSell, \"Wrong contract state\");\n\n        require(msg.value == price, \"Pay the exact price\");\n\n        // deposit = msg.value;\n        \n        // uint fee = deposit * (realtorFee / 100);\n        \n        // owner.transfer(fee);\n        seller.transfer(msg.value);\n        contractState = ContractState.NotToSell;  \n        seller = msg.sender; \n        nbTransaction++;\n\n    }\n}\n",
  "sourcePath": "/Users/yoann/5BLOC/finguers/contracts/HomeTransaction.sol",
  "compiler": {
    "name": "solc",
    "version": "0.5.16+commit.9c3226ce.Emscripten.clang"
  },
  "schemaVersion": "3.3.4",
  "updatedAt": "2021-03-01T22:04:54.599Z",
  "devdoc": {
    "methods": {}
  },
  "userdoc": {
    "methods": {}
  }
}